{
  "contractName": "SafeSmartContract",
  "abi": [
    {
      "anonymous": false,
      "inputs": [
        {
          "indexed": true,
          "internalType": "address",
          "name": "user",
          "type": "address"
        },
        {
          "indexed": false,
          "internalType": "uint256",
          "name": "reward",
          "type": "uint256"
        }
      ],
      "name": "RewardCalculated",
      "type": "event"
    },
    {
      "anonymous": false,
      "inputs": [
        {
          "indexed": true,
          "internalType": "address",
          "name": "user",
          "type": "address"
        },
        {
          "indexed": false,
          "internalType": "uint256",
          "name": "amount",
          "type": "uint256"
        },
        {
          "indexed": false,
          "internalType": "uint256",
          "name": "duration",
          "type": "uint256"
        }
      ],
      "name": "TokensLocked",
      "type": "event"
    },
    {
      "inputs": [
        {
          "internalType": "address",
          "name": "",
          "type": "address"
        }
      ],
      "name": "userCompartments",
      "outputs": [
        {
          "internalType": "uint256",
          "name": "lockedAmount",
          "type": "uint256"
        },
        {
          "internalType": "uint256",
          "name": "lockDuration",
          "type": "uint256"
        },
        {
          "internalType": "uint256",
          "name": "reward",
          "type": "uint256"
        }
      ],
      "stateMutability": "view",
      "type": "function"
    },
    {
      "inputs": [
        {
          "internalType": "uint256",
          "name": "duration",
          "type": "uint256"
        }
      ],
      "name": "lockTokens",
      "outputs": [],
      "stateMutability": "payable",
      "type": "function"
    },
    {
      "inputs": [],
      "name": "calculateReward",
      "outputs": [],
      "stateMutability": "nonpayable",
      "type": "function"
    },
    {
      "inputs": [],
      "name": "withdrawReward",
      "outputs": [],
      "stateMutability": "nonpayable",
      "type": "function"
    }
  ],
  "bytecode": "0x608060405234801561000f575f80fd5b50610bc38061001d5f395ff3fe60806040526004361061003e575f3560e01c80636e27d88914610042578063725cedd31461005e578063be22851714610074578063c885bc58146100b2575b5f80fd5b61005c600480360381019061005791906106d1565b6100c8565b005b348015610069575f80fd5b5061007261027b565b005b34801561007f575f80fd5b5061009a60048036038101906100959190610756565b61043a565b6040516100a993929190610790565b60405180910390f35b3480156100bd575f80fd5b506100c661045f565b005b5f811161010a576040517f08c379a000000000000000000000000000000000000000000000000000000000815260040161010190610845565b60405180910390fd5b5f341161014c576040517f08c379a0000000000000000000000000000000000000000000000000000000008152600401610143906108d3565b60405180910390fd5b345f803373ffffffffffffffffffffffffffffffffffffffff1673ffffffffffffffffffffffffffffffffffffffff1681526020019081526020015f205f015f828254610199919061091e565b92505081905550805f803373ffffffffffffffffffffffffffffffffffffffff1673ffffffffffffffffffffffffffffffffffffffff1681526020019081526020015f20600101819055505f805f3373ffffffffffffffffffffffffffffffffffffffff1673ffffffffffffffffffffffffffffffffffffffff1681526020019081526020015f20600201819055503373ffffffffffffffffffffffffffffffffffffffff167fd741e738a23fd18a03a26522320d9fc6cac1fed483e215ea9150fbc2fc43385d3483604051610270929190610951565b60405180910390a250565b5f805f3373ffffffffffffffffffffffffffffffffffffffff1673ffffffffffffffffffffffffffffffffffffffff1681526020019081526020015f2060010154116102fc576040517f08c379a00000000000000000000000000000000000000000000000000000000081526004016102f3906109c2565b60405180910390fd5b5f803373ffffffffffffffffffffffffffffffffffffffff1673ffffffffffffffffffffffffffffffffffffffff1681526020019081526020015f206001015442610347919061091e565b421015610389576040517f08c379a000000000000000000000000000000000000000000000000000000000815260040161038090610a50565b60405180910390fd5b5f61039261056f565b9050805f803373ffffffffffffffffffffffffffffffffffffffff1673ffffffffffffffffffffffffffffffffffffffff1681526020019081526020015f206002015f8282546103e2919061091e565b925050819055503373ffffffffffffffffffffffffffffffffffffffff167fd07a420afcdd49adbabe6d82ad92718bdf8577dcf328e9ef95e63a52b235968f8260405161042f9190610a6e565b60405180910390a250565b5f602052805f5260405f205f91509050805f0154908060010154908060020154905083565b5f805f3373ffffffffffffffffffffffffffffffffffffffff1673ffffffffffffffffffffffffffffffffffffffff1681526020019081526020015f206002015490505f81116104e4576040517f08c379a00000000000000000000000000000000000000000000000000000000081526004016104db90610ad1565b60405180910390fd5b5f805f3373ffffffffffffffffffffffffffffffffffffffff1673ffffffffffffffffffffffffffffffffffffffff1681526020019081526020015f20600201819055503373ffffffffffffffffffffffffffffffffffffffff166108fc8290811502906040515f60405180830381858888f1935050505015801561056b573d5f803e3d5ffd5b5050565b5f805f803373ffffffffffffffffffffffffffffffffffffffff1673ffffffffffffffffffffffffffffffffffffffff1681526020019081526020015f2060010154116105f1576040517f08c379a00000000000000000000000000000000000000000000000000000000081526004016105e8906109c2565b60405180910390fd5b5f805f3373ffffffffffffffffffffffffffffffffffffffff1673ffffffffffffffffffffffffffffffffffffffff1681526020019081526020015f206001015490505f805f3373ffffffffffffffffffffffffffffffffffffffff1673ffffffffffffffffffffffffffffffffffffffff1681526020019081526020015f205f015490505f606483836106859190610aef565b61068f9190610b5d565b905080935050505090565b5f80fd5b5f819050919050565b6106b08161069e565b81146106ba575f80fd5b50565b5f813590506106cb816106a7565b92915050565b5f602082840312156106e6576106e561069a565b5b5f6106f3848285016106bd565b91505092915050565b5f73ffffffffffffffffffffffffffffffffffffffff82169050919050565b5f610725826106fc565b9050919050565b6107358161071b565b811461073f575f80fd5b50565b5f813590506107508161072c565b92915050565b5f6020828403121561076b5761076a61069a565b5b5f61077884828501610742565b91505092915050565b61078a8161069e565b82525050565b5f6060820190506107a35f830186610781565b6107b06020830185610781565b6107bd6040830184610781565b949350505050565b5f82825260208201905092915050565b7f4b696c69746c656d652073757265736920736966697264616e20627579756b205f8201527f6f6c6d616c696469722e00000000000000000000000000000000000000000000602082015250565b5f61082f602a836107c5565b915061083a826107d5565b604082019050919050565b5f6020820190508181035f83015261085c81610823565b9050919050565b7f4b696c69746c656d65206d696b7461726920736966697264616e20627579756b5f8201527f206f6c6d616c696469722e000000000000000000000000000000000000000000602082015250565b5f6108bd602b836107c5565b91506108c882610863565b604082019050919050565b5f6020820190508181035f8301526108ea816108b1565b9050919050565b7f4e487b71000000000000000000000000000000000000000000000000000000005f52601160045260245ffd5b5f6109288261069e565b91506109338361069e565b925082820190508082111561094b5761094a6108f1565b5b92915050565b5f6040820190506109645f830185610781565b6109716020830184610781565b9392505050565b7f4b696c69746c656d65207375726573692074616e696d6c616e6d616d69732e005f82015250565b5f6109ac601f836107c5565b91506109b782610978565b602082019050919050565b5f6020820190508181035f8301526109d9816109a0565b9050919050565b7f4b696c69746c656d652073757265736920646f6c6d6164616e206f64756c20685f8201527f657361706c616e616d617a2e0000000000000000000000000000000000000000602082015250565b5f610a3a602c836107c5565b9150610a45826109e0565b604082019050919050565b5f6020820190508181035f830152610a6781610a2e565b9050919050565b5f602082019050610a815f830184610781565b92915050565b7f43656b6563656b206f64756c2062756c756e616d6164692e00000000000000005f82015250565b5f610abb6018836107c5565b9150610ac682610a87565b602082019050919050565b5f6020820190508181035f830152610ae881610aaf565b9050919050565b5f610af98261069e565b9150610b048361069e565b9250828202610b128161069e565b91508282048414831517610b2957610b286108f1565b5b5092915050565b7f4e487b71000000000000000000000000000000000000000000000000000000005f52601260045260245ffd5b5f610b678261069e565b9150610b728361069e565b925082610b8257610b81610b30565b5b82820490509291505056fea264697066735822122025a2737c9f8b71f60cfc2c69f40577c196719fab19ee74326b8f88d8c2dfcb0564736f6c63430008150033",
  "immutableReferences": {},
  "source": "// SPDX-License-Identifier: MIT\r\npragma solidity ^0.8.0;\r\n\r\ncontract SafeSmartContract {\r\n    mapping(address => Compartment) public userCompartments;\r\n\r\n    struct Compartment {\r\n        uint256 lockedAmount;\r\n        uint256 lockDuration;\r\n        uint256 reward;\r\n    }\r\n\r\n    event TokensLocked(address indexed user, uint256 amount, uint256 duration);\r\n    event RewardCalculated(address indexed user, uint256 reward);\r\n\r\n    function lockTokens(uint256 duration) public payable {\r\n        require(duration > 0, \"Kilitleme suresi sifirdan buyuk olmalidir.\");\r\n        require(msg.value > 0, \"Kilitleme miktari sifirdan buyuk olmalidir.\");\r\n\r\n        userCompartments[msg.sender].lockedAmount += msg.value;\r\n        userCompartments[msg.sender].lockDuration = duration;\r\n        userCompartments[msg.sender].reward = 0;\r\n\r\n        emit TokensLocked(msg.sender, msg.value, duration);\r\n    }\r\n\r\n    function calculateReward() public {\r\n        require(userCompartments[msg.sender].lockDuration > 0, \"Kilitleme suresi tanimlanmamis.\");\r\n        require(block.timestamp >= (block.timestamp + userCompartments[msg.sender].lockDuration), \"Kilitleme suresi dolmadan odul hesaplanamaz.\");\r\n\r\n        uint256 reward = calculateRewardLogic();\r\n        userCompartments[msg.sender].reward += reward;\r\n\r\n        emit RewardCalculated(msg.sender, reward);\r\n    }\r\n\r\n    function calculateRewardLogic() private view returns (uint256) {\r\n    require(userCompartments[msg.sender].lockDuration > 0, \"Kilitleme suresi tanimlanmamis.\");\r\n    \r\n    // Kilitleme sresi saniye cinsinden\r\n    uint256 lockDuration = userCompartments[msg.sender].lockDuration;\r\n\r\n    // Kilitleme miktar\r\n    uint256 lockedAmount = userCompartments[msg.sender].lockedAmount;\r\n\r\n    // dl hesaplama mantna daha karmak bir forml ekleyebilirsiniz\r\n    // Bu sadece bir rnek forml, projenizin gereksinimlerine gre uyarlanmaldr\r\n    uint256 reward = lockedAmount * lockDuration / 100;\r\n\r\n    return reward;\r\n}\r\n\r\n\r\n    function withdrawReward() public {\r\n        uint256 reward = userCompartments[msg.sender].reward;\r\n        require(reward > 0, \"Cekecek odul bulunamadi.\");\r\n\r\n        userCompartments[msg.sender].reward = 0;\r\n        payable(msg.sender).transfer(reward);\r\n    }\r\n}\r\n",
  "sourcePath": "C:\\Users\\BAHADIR\\Desktop\\Projects\\bnb-chain\\contracts\\SafeSmartContract.sol",
  "compiler": {
    "name": "solc",
    "version": "0.8.21+commit.d9974bed.Emscripten.clang"
  },
  "schemaVersion": "3.4.16",
  "updatedAt": "2023-10-14T13:38:13.399Z",
  "devdoc": {
    "kind": "dev",
    "methods": {},
    "version": 1
  },
  "userdoc": {
    "kind": "user",
    "methods": {},
    "version": 1
  }
}